{
  "address": "0xf33ACe5820752697828016972Bbecda4493c5d6E",
  "abi": [
    {
      "inputs": [],
      "stateMutability": "nonpayable",
      "type": "constructor"
    },
    {
      "inputs": [
        {
          "internalType": "address",
          "name": "owner",
          "type": "address"
        }
      ],
      "name": "OwnableInvalidOwner",
      "type": "error"
    },
    {
      "inputs": [
        {
          "internalType": "address",
          "name": "account",
          "type": "address"
        }
      ],
      "name": "OwnableUnauthorizedAccount",
      "type": "error"
    },
    {
      "inputs": [],
      "name": "ReentrancyGuardReentrantCall",
      "type": "error"
    },
    {
      "anonymous": false,
      "inputs": [
        {
          "indexed": true,
          "internalType": "uint256",
          "name": "listingId",
          "type": "uint256"
        },
        {
          "indexed": true,
          "internalType": "address",
          "name": "nftContract",
          "type": "address"
        },
        {
          "indexed": true,
          "internalType": "uint256",
          "name": "tokenId",
          "type": "uint256"
        },
        {
          "indexed": false,
          "internalType": "address",
          "name": "seller",
          "type": "address"
        }
      ],
      "name": "ListingCancelled",
      "type": "event"
    },
    {
      "anonymous": false,
      "inputs": [
        {
          "indexed": true,
          "internalType": "uint256",
          "name": "listingId",
          "type": "uint256"
        },
        {
          "indexed": true,
          "internalType": "address",
          "name": "nftContract",
          "type": "address"
        },
        {
          "indexed": true,
          "internalType": "uint256",
          "name": "tokenId",
          "type": "uint256"
        },
        {
          "indexed": false,
          "internalType": "address",
          "name": "seller",
          "type": "address"
        },
        {
          "indexed": false,
          "internalType": "uint256",
          "name": "price",
          "type": "uint256"
        }
      ],
      "name": "NFTListed",
      "type": "event"
    },
    {
      "anonymous": false,
      "inputs": [
        {
          "indexed": true,
          "internalType": "uint256",
          "name": "listingId",
          "type": "uint256"
        },
        {
          "indexed": true,
          "internalType": "address",
          "name": "nftContract",
          "type": "address"
        },
        {
          "indexed": true,
          "internalType": "uint256",
          "name": "tokenId",
          "type": "uint256"
        },
        {
          "indexed": false,
          "internalType": "address",
          "name": "seller",
          "type": "address"
        },
        {
          "indexed": false,
          "internalType": "address",
          "name": "buyer",
          "type": "address"
        },
        {
          "indexed": false,
          "internalType": "uint256",
          "name": "price",
          "type": "uint256"
        }
      ],
      "name": "NFTSold",
      "type": "event"
    },
    {
      "anonymous": false,
      "inputs": [
        {
          "indexed": true,
          "internalType": "address",
          "name": "previousOwner",
          "type": "address"
        },
        {
          "indexed": true,
          "internalType": "address",
          "name": "newOwner",
          "type": "address"
        }
      ],
      "name": "OwnershipTransferred",
      "type": "event"
    },
    {
      "inputs": [
        {
          "internalType": "uint256",
          "name": "listingId",
          "type": "uint256"
        }
      ],
      "name": "buyNFT",
      "outputs": [],
      "stateMutability": "payable",
      "type": "function"
    },
    {
      "inputs": [
        {
          "internalType": "uint256",
          "name": "listingId",
          "type": "uint256"
        }
      ],
      "name": "cancelListing",
      "outputs": [],
      "stateMutability": "nonpayable",
      "type": "function"
    },
    {
      "inputs": [
        {
          "internalType": "address",
          "name": "nftContract",
          "type": "address"
        },
        {
          "internalType": "uint256",
          "name": "tokenId",
          "type": "uint256"
        },
        {
          "internalType": "address",
          "name": "to",
          "type": "address"
        }
      ],
      "name": "emergencyRecoverNFT",
      "outputs": [],
      "stateMutability": "nonpayable",
      "type": "function"
    },
    {
      "inputs": [
        {
          "internalType": "address",
          "name": "nftContract",
          "type": "address"
        },
        {
          "internalType": "uint256",
          "name": "tokenId",
          "type": "uint256"
        }
      ],
      "name": "getActiveListing",
      "outputs": [
        {
          "internalType": "uint256",
          "name": "",
          "type": "uint256"
        }
      ],
      "stateMutability": "view",
      "type": "function"
    },
    {
      "inputs": [],
      "name": "getAllActiveListings",
      "outputs": [
        {
          "components": [
            {
              "internalType": "uint256",
              "name": "listingId",
              "type": "uint256"
            },
            {
              "internalType": "uint256",
              "name": "tokenId",
              "type": "uint256"
            },
            {
              "internalType": "address",
              "name": "nftContract",
              "type": "address"
            },
            {
              "internalType": "address",
              "name": "seller",
              "type": "address"
            },
            {
              "internalType": "uint256",
              "name": "price",
              "type": "uint256"
            },
            {
              "internalType": "bool",
              "name": "active",
              "type": "bool"
            }
          ],
          "internalType": "struct NFTMarketplace.ListingWithId[]",
          "name": "",
          "type": "tuple[]"
        }
      ],
      "stateMutability": "view",
      "type": "function"
    },
    {
      "inputs": [
        {
          "internalType": "address",
          "name": "nftContract",
          "type": "address"
        },
        {
          "internalType": "uint256",
          "name": "tokenId",
          "type": "uint256"
        },
        {
          "internalType": "uint256",
          "name": "price",
          "type": "uint256"
        }
      ],
      "name": "listNFT",
      "outputs": [],
      "stateMutability": "nonpayable",
      "type": "function"
    },
    {
      "inputs": [
        {
          "internalType": "uint256",
          "name": "",
          "type": "uint256"
        }
      ],
      "name": "listings",
      "outputs": [
        {
          "internalType": "uint256",
          "name": "tokenId",
          "type": "uint256"
        },
        {
          "internalType": "address",
          "name": "nftContract",
          "type": "address"
        },
        {
          "internalType": "address",
          "name": "seller",
          "type": "address"
        },
        {
          "internalType": "uint256",
          "name": "price",
          "type": "uint256"
        },
        {
          "internalType": "bool",
          "name": "active",
          "type": "bool"
        }
      ],
      "stateMutability": "view",
      "type": "function"
    },
    {
      "inputs": [],
      "name": "marketplaceFee",
      "outputs": [
        {
          "internalType": "uint256",
          "name": "",
          "type": "uint256"
        }
      ],
      "stateMutability": "view",
      "type": "function"
    },
    {
      "inputs": [],
      "name": "nextListingId",
      "outputs": [
        {
          "internalType": "uint256",
          "name": "",
          "type": "uint256"
        }
      ],
      "stateMutability": "view",
      "type": "function"
    },
    {
      "inputs": [],
      "name": "owner",
      "outputs": [
        {
          "internalType": "address",
          "name": "",
          "type": "address"
        }
      ],
      "stateMutability": "view",
      "type": "function"
    },
    {
      "inputs": [],
      "name": "renounceOwnership",
      "outputs": [],
      "stateMutability": "nonpayable",
      "type": "function"
    },
    {
      "inputs": [
        {
          "internalType": "uint256",
          "name": "newFee",
          "type": "uint256"
        }
      ],
      "name": "setMarketplaceFee",
      "outputs": [],
      "stateMutability": "nonpayable",
      "type": "function"
    },
    {
      "inputs": [
        {
          "internalType": "address",
          "name": "",
          "type": "address"
        },
        {
          "internalType": "uint256",
          "name": "",
          "type": "uint256"
        }
      ],
      "name": "tokenToListing",
      "outputs": [
        {
          "internalType": "uint256",
          "name": "",
          "type": "uint256"
        }
      ],
      "stateMutability": "view",
      "type": "function"
    },
    {
      "inputs": [
        {
          "internalType": "address",
          "name": "newOwner",
          "type": "address"
        }
      ],
      "name": "transferOwnership",
      "outputs": [],
      "stateMutability": "nonpayable",
      "type": "function"
    },
    {
      "inputs": [
        {
          "internalType": "uint256",
          "name": "listingId",
          "type": "uint256"
        },
        {
          "internalType": "uint256",
          "name": "newPrice",
          "type": "uint256"
        }
      ],
      "name": "updatePrice",
      "outputs": [],
      "stateMutability": "nonpayable",
      "type": "function"
    },
    {
      "inputs": [],
      "name": "withdrawFees",
      "outputs": [],
      "stateMutability": "nonpayable",
      "type": "function"
    }
  ],
  "transactionHash": "0xc3b87e862d30f141884bb1ebdec7f608c193c7ad1cb046d7ca5bd8122af5ea63",
  "args": [],
  "numDeployments": 1,
  "solcInputHash": "47ae9e825872b5968938254feaf2926d",
  "bytecode": "0x6080604052600160045560fa60055534801561001a57600080fd5b506001600055338061004657604051631e4fbdf760e01b81526000600482015260240160405180910390fd5b61004f81610055565b506100a7565b600180546001600160a01b038381166001600160a01b0319831681179093556040519116919082907f8be0079c531659141344cd1fd0a4f28419497f9722a3daafe3b4186f6b6457e090600090a35050565b611523806100b66000396000f3fe6080604052600436106100f35760003560e01c80638da5cb5b1161008a578063bad27f9b11610059578063bad27f9b14610278578063c4c5418814610298578063de74e57b146102b8578063f2fde38b1461034757600080fd5b80638da5cb5b146101fa5780639407ea9814610222578063aaccf1ec14610242578063ad05f1b41461025857600080fd5b80636f7b4352116100c65780636f7b43521461016b578063701e5084146101a3578063715018a6146101c557806382367b2d146101da57600080fd5b8063305a67a8146100f8578063476343ee1461011a57806351ed82881461012f5780636a16696414610142575b600080fd5b34801561010457600080fd5b5061011861011336600461123c565b610367565b005b34801561012657600080fd5b506101186104b4565b61011861013d36600461123c565b6105ac565b34801561014e57600080fd5b5061015860055481565b6040519081526020015b60405180910390f35b34801561017757600080fd5b5061015861018636600461126a565b600360209081526000928352604080842090915290825290205481565b3480156101af57600080fd5b506101b86109f6565b6040516101629190611296565b3480156101d157600080fd5b50610118610b97565b3480156101e657600080fd5b506101186101f536600461131e565b610bab565b34801561020657600080fd5b506001546040516001600160a01b039091168152602001610162565b34801561022e57600080fd5b5061011861023d36600461123c565b610c90565b34801561024e57600080fd5b5061015860045481565b34801561026457600080fd5b50610118610273366004611340565b610ce7565b34801561028457600080fd5b5061015861029336600461126a565b6110b8565b3480156102a457600080fd5b506101186102b3366004611375565b6110e3565b3480156102c457600080fd5b506103116102d336600461123c565b60026020819052600091825260409091208054600182015492820154600383015460049093015491936001600160a01b039081169391169160ff1685565b604080519586526001600160a01b039485166020870152929093169184019190915260608301521515608082015260a001610162565b34801561035357600080fd5b506101186103623660046113b7565b611158565b61036f611193565b6000818152600260205260409020600481015460ff166103aa5760405162461bcd60e51b81526004016103a1906113db565b60405180910390fd5b60028101546001600160a01b03163314806103de5750336103d36001546001600160a01b031690565b6001600160a01b0316145b61042a5760405162461bcd60e51b815260206004820152601f60248201527f4f6e6c792073656c6c6572206f72206f776e65722063616e2063616e63656c0060448201526064016103a1565b60048101805460ff191690556001810180546001600160a01b03908116600090815260036020908152604080832086548452825280832092909255845493546002860154925192841683529092169185917f69e5af4ae7d64e2ae64974f8f3d1149f91bd39f3b1dc649f7add227a19093a07910160405180910390a4506104b16001600055565b50565b6104bc6111bd565b47806105005760405162461bcd60e51b81526020600482015260136024820152724e6f206665657320746f20776974686472617760681b60448201526064016103a1565b60006105146001546001600160a01b031690565b6001600160a01b03168260405160006040518083038185875af1925050503d806000811461055e576040519150601f19603f3d011682016040523d82523d6000602084013e610563565b606091505b50509050806105a85760405162461bcd60e51b815260206004820152601160248201527015da5d1a191c985dd85b0819985a5b1959607a1b60448201526064016103a1565b5050565b6105b4611193565b6000818152600260205260409020600481015460ff166105e65760405162461bcd60e51b81526004016103a1906113db565b80600301543410156106315760405162461bcd60e51b8152602060048201526014602482015273125b9cdd59999a58da595b9d081c185e5b595b9d60621b60448201526064016103a1565b60028101546001600160a01b0316330361068d5760405162461bcd60e51b815260206004820152601760248201527f43616e6e6f742062757920796f7572206f776e204e465400000000000000000060448201526064016103a1565b6002810154600182015482546040516331a9108f60e11b815260048101919091526001600160a01b039283169290911690636352211e90602401602060405180830381865afa1580156106e4573d6000803e3d6000fd5b505050506040513d601f19601f820116820180604052508101906107089190611407565b6001600160a01b03161461075e5760405162461bcd60e51b815260206004820152601e60248201527f53656c6c6572206e6f206c6f6e676572206f776e732074686973204e4654000060448201526064016103a1565b60048101805460ff1916905560018101546001600160a01b0316600090815260036020818152604080842085548552909152822082905560055490830154612710916107a99161143a565b6107b39190611451565b905060008183600301546107c79190611473565b600184015460028501548554604051632142170760e11b81526001600160a01b039283166004820152336024820152604481019190915292935016906342842e0e90606401600060405180830381600087803b15801561082657600080fd5b505af115801561083a573d6000803e3d6000fd5b5050505060028301546040516000916001600160a01b03169083908381818185875af1925050503d806000811461088d576040519150601f19603f3d011682016040523d82523d6000602084013e610892565b606091505b50509050806108e35760405162461bcd60e51b815260206004820152601860248201527f5061796d656e7420746f2073656c6c6572206661696c6564000000000000000060448201526064016103a1565b836003015434111561098757600384015460009033906109039034611473565b604051600081818185875af1925050503d806000811461093f576040519150601f19603f3d011682016040523d82523d6000602084013e610944565b606091505b50509050806109855760405162461bcd60e51b815260206004820152600d60248201526c1499599d5b990819985a5b1959609a1b60448201526064016103a1565b505b8354600185015460028601546003870154604080516001600160a01b0393841681523360208201529081019190915291169087907ffbd14ef83c9e36d4cd05cdc496d3b3a07da3041679b4142908d0ef3cef210dc49060600160405180910390a4505050506104b16001600055565b6060600060015b600454811015610a415760008181526002602052604090206004015460ff1615610a2f5781610a2b81611486565b9250505b80610a3981611486565b9150506109fd565b5060008167ffffffffffffffff811115610a5d57610a5d61149f565b604051908082528060200260200182016040528015610abd57816020015b6040805160c08101825260008082526020808301829052928201819052606082018190526080820181905260a08201528252600019909201910181610a7b5790505b509050600060015b600454811015610b8e5760008181526002602052604090206004015460ff1615610b7c576040805160c08101825282815260008381526002602081815284832080548286015260018101546001600160a01b03908116968601969096528083015490951660608501526003850154608085015291859052905260049091015460ff16151560a08201528351849084908110610b6257610b626114b5565b60200260200101819052508180610b7890611486565b9250505b80610b8681611486565b915050610ac5565b50909392505050565b610b9f6111bd565b610ba960006111ea565b565b6000828152600260205260409020600481015460ff16610bdd5760405162461bcd60e51b81526004016103a1906113db565b60028101546001600160a01b03163314610c395760405162461bcd60e51b815260206004820152601c60248201527f4f6e6c792073656c6c65722063616e207570646174652070726963650000000060448201526064016103a1565b60008211610c895760405162461bcd60e51b815260206004820152601c60248201527f5072696365206d7573742062652067726561746572207468616e20300000000060448201526064016103a1565b6003015550565b610c986111bd565b6103e8811115610ce25760405162461bcd60e51b81526020600482015260156024820152744665652063616e6e6f74206578636565642031302560581b60448201526064016103a1565b600555565b610cef611193565b60008111610d3f5760405162461bcd60e51b815260206004820152601c60248201527f5072696365206d7573742062652067726561746572207468616e20300000000060448201526064016103a1565b6040516331a9108f60e11b81526004810183905233906001600160a01b03851690636352211e90602401602060405180830381865afa158015610d86573d6000803e3d6000fd5b505050506040513d601f19601f82011682018060405250810190610daa9190611407565b6001600160a01b031614610df95760405162461bcd60e51b8152602060048201526016602482015275165bdd48191bdb89dd081bdddb881d1a1a5cc813919560521b60448201526064016103a1565b60405163e985e9c560e01b81523360048201523060248201526001600160a01b0384169063e985e9c590604401602060405180830381865afa158015610e43573d6000803e3d6000fd5b505050506040513d601f19601f82011682018060405250810190610e6791906114cb565b80610ee3575060405163020604bf60e21b81526004810183905230906001600160a01b0385169063081812fc90602401602060405180830381865afa158015610eb4573d6000803e3d6000fd5b505050506040513d601f19601f82011682018060405250810190610ed89190611407565b6001600160a01b0316145b610f405760405162461bcd60e51b815260206004820152602860248201527f4d61726b6574706c616365206e6f7420617070726f76656420746f207472616e6044820152671cd9995c8813919560c21b60648201526084016103a1565b6001600160a01b038316600090815260036020908152604080832085845290915290205415610fa65760405162461bcd60e51b815260206004820152601260248201527113919508185b1c9958591e481b1a5cdd195960721b60448201526064016103a1565b6004805460009182610fb783611486565b909155506040805160a0810182528581526001600160a01b03878116602080840182815233858701818152606087018b815260016080890181815260008c815260028089528c82209b518c559651928b018054938b166001600160a01b03199485161790559351958a018054969099169590911694909417909655945160038088019190915591516004909601805496151560ff19909716969096179095558284528152848320898452815291849020859055835192835290820186905292935085929184917f18c93addaf4d0e5982a13cb88444441b90223974eaf9d6e898151cb4d96bf153910160405180910390a4506110b36001600055565b505050565b6001600160a01b03821660009081526003602090815260408083208484529091529020545b92915050565b6110eb6111bd565b604051632142170760e11b81523060048201526001600160a01b038281166024830152604482018490528416906342842e0e90606401600060405180830381600087803b15801561113b57600080fd5b505af115801561114f573d6000803e3d6000fd5b50505050505050565b6111606111bd565b6001600160a01b03811661118a57604051631e4fbdf760e01b8152600060048201526024016103a1565b6104b1816111ea565b6002600054036111b657604051633ee5aeb560e01b815260040160405180910390fd5b6002600055565b6001546001600160a01b03163314610ba95760405163118cdaa760e01b81523360048201526024016103a1565b600180546001600160a01b038381166001600160a01b0319831681179093556040519116919082907f8be0079c531659141344cd1fd0a4f28419497f9722a3daafe3b4186f6b6457e090600090a35050565b60006020828403121561124e57600080fd5b5035919050565b6001600160a01b03811681146104b157600080fd5b6000806040838503121561127d57600080fd5b823561128881611255565b946020939093013593505050565b602080825282518282018190526000919060409081850190868401855b82811015611311578151805185528681015187860152858101516001600160a01b0390811687870152606080830151909116908601526080808201519086015260a09081015115159085015260c090930192908501906001016112b3565b5091979650505050505050565b6000806040838503121561133157600080fd5b50508035926020909101359150565b60008060006060848603121561135557600080fd5b833561136081611255565b95602085013595506040909401359392505050565b60008060006060848603121561138a57600080fd5b833561139581611255565b92506020840135915060408401356113ac81611255565b809150509250925092565b6000602082840312156113c957600080fd5b81356113d481611255565b9392505050565b6020808252601290820152714c697374696e67206e6f742061637469766560701b604082015260600190565b60006020828403121561141957600080fd5b81516113d481611255565b634e487b7160e01b600052601160045260246000fd5b80820281158282048414176110dd576110dd611424565b60008261146e57634e487b7160e01b600052601260045260246000fd5b500490565b818103818111156110dd576110dd611424565b60006001820161149857611498611424565b5060010190565b634e487b7160e01b600052604160045260246000fd5b634e487b7160e01b600052603260045260246000fd5b6000602082840312156114dd57600080fd5b815180151581146113d457600080fdfea26469706673582212209cba3917a88eeaf9fe07f8c981960b533cffac211d385f094c413850656eb20d64736f6c63430008140033",
  "devdoc": {
    "errors": {
      "OwnableInvalidOwner(address)": [
        {
          "details": "The owner is not a valid owner account. (eg. `address(0)`)"
        }
      ],
      "OwnableUnauthorizedAccount(address)": [
        {
          "details": "The caller account is not authorized to perform an operation."
        }
      ],
      "ReentrancyGuardReentrantCall()": [
        {
          "details": "Unauthorized reentrant call."
        }
      ]
    },
    "kind": "dev",
    "methods": {
      "owner()": {
        "details": "Returns the address of the current owner."
      },
      "renounceOwnership()": {
        "details": "Leaves the contract without owner. It will not be possible to call `onlyOwner` functions. Can only be called by the current owner. NOTE: Renouncing ownership will leave the contract without an owner, thereby disabling any functionality that is only available to the owner."
      },
      "transferOwnership(address)": {
        "details": "Transfers ownership of the contract to a new account (`newOwner`). Can only be called by the current owner."
      }
    },
    "version": 1
  },
  "userdoc": {
    "kind": "user",
    "methods": {},
    "version": 1
  },
  "storageLayout": {
    "storage": [
      {
        "astId": 305,
        "contract": "contracts/NFTMarketplace.sol:NFTMarketplace",
        "label": "_status",
        "offset": 0,
        "slot": "0",
        "type": "t_uint256"
      },
      {
        "astId": 8,
        "contract": "contracts/NFTMarketplace.sol:NFTMarketplace",
        "label": "_owner",
        "offset": 0,
        "slot": "1",
        "type": "t_address"
      },
      {
        "astId": 413,
        "contract": "contracts/NFTMarketplace.sol:NFTMarketplace",
        "label": "listings",
        "offset": 0,
        "slot": "2",
        "type": "t_mapping(t_uint256,t_struct(Listing)395_storage)"
      },
      {
        "astId": 419,
        "contract": "contracts/NFTMarketplace.sol:NFTMarketplace",
        "label": "tokenToListing",
        "offset": 0,
        "slot": "3",
        "type": "t_mapping(t_address,t_mapping(t_uint256,t_uint256))"
      },
      {
        "astId": 422,
        "contract": "contracts/NFTMarketplace.sol:NFTMarketplace",
        "label": "nextListingId",
        "offset": 0,
        "slot": "4",
        "type": "t_uint256"
      },
      {
        "astId": 425,
        "contract": "contracts/NFTMarketplace.sol:NFTMarketplace",
        "label": "marketplaceFee",
        "offset": 0,
        "slot": "5",
        "type": "t_uint256"
      }
    ],
    "types": {
      "t_address": {
        "encoding": "inplace",
        "label": "address",
        "numberOfBytes": "20"
      },
      "t_bool": {
        "encoding": "inplace",
        "label": "bool",
        "numberOfBytes": "1"
      },
      "t_mapping(t_address,t_mapping(t_uint256,t_uint256))": {
        "encoding": "mapping",
        "key": "t_address",
        "label": "mapping(address => mapping(uint256 => uint256))",
        "numberOfBytes": "32",
        "value": "t_mapping(t_uint256,t_uint256)"
      },
      "t_mapping(t_uint256,t_struct(Listing)395_storage)": {
        "encoding": "mapping",
        "key": "t_uint256",
        "label": "mapping(uint256 => struct NFTMarketplace.Listing)",
        "numberOfBytes": "32",
        "value": "t_struct(Listing)395_storage"
      },
      "t_mapping(t_uint256,t_uint256)": {
        "encoding": "mapping",
        "key": "t_uint256",
        "label": "mapping(uint256 => uint256)",
        "numberOfBytes": "32",
        "value": "t_uint256"
      },
      "t_struct(Listing)395_storage": {
        "encoding": "inplace",
        "label": "struct NFTMarketplace.Listing",
        "members": [
          {
            "astId": 386,
            "contract": "contracts/NFTMarketplace.sol:NFTMarketplace",
            "label": "tokenId",
            "offset": 0,
            "slot": "0",
            "type": "t_uint256"
          },
          {
            "astId": 388,
            "contract": "contracts/NFTMarketplace.sol:NFTMarketplace",
            "label": "nftContract",
            "offset": 0,
            "slot": "1",
            "type": "t_address"
          },
          {
            "astId": 390,
            "contract": "contracts/NFTMarketplace.sol:NFTMarketplace",
            "label": "seller",
            "offset": 0,
            "slot": "2",
            "type": "t_address"
          },
          {
            "astId": 392,
            "contract": "contracts/NFTMarketplace.sol:NFTMarketplace",
            "label": "price",
            "offset": 0,
            "slot": "3",
            "type": "t_uint256"
          },
          {
            "astId": 394,
            "contract": "contracts/NFTMarketplace.sol:NFTMarketplace",
            "label": "active",
            "offset": 0,
            "slot": "4",
            "type": "t_bool"
          }
        ],
        "numberOfBytes": "160"
      },
      "t_uint256": {
        "encoding": "inplace",
        "label": "uint256",
        "numberOfBytes": "32"
      }
    }
  }
}