{
  "address": "0x2d0e00319A16d7C62271d8eB5ac183f254802A53",
  "abi": [
    {
      "inputs": [],
      "stateMutability": "nonpayable",
      "type": "constructor"
    },
    {
      "inputs": [
        {
          "internalType": "address",
          "name": "owner",
          "type": "address"
        }
      ],
      "name": "OwnableInvalidOwner",
      "type": "error"
    },
    {
      "inputs": [
        {
          "internalType": "address",
          "name": "account",
          "type": "address"
        }
      ],
      "name": "OwnableUnauthorizedAccount",
      "type": "error"
    },
    {
      "inputs": [],
      "name": "ReentrancyGuardReentrantCall",
      "type": "error"
    },
    {
      "anonymous": false,
      "inputs": [
        {
          "indexed": true,
          "internalType": "uint256",
          "name": "listingId",
          "type": "uint256"
        },
        {
          "indexed": true,
          "internalType": "address",
          "name": "nftContract",
          "type": "address"
        },
        {
          "indexed": true,
          "internalType": "uint256",
          "name": "tokenId",
          "type": "uint256"
        },
        {
          "indexed": false,
          "internalType": "address",
          "name": "seller",
          "type": "address"
        }
      ],
      "name": "ListingCancelled",
      "type": "event"
    },
    {
      "anonymous": false,
      "inputs": [
        {
          "indexed": true,
          "internalType": "uint256",
          "name": "listingId",
          "type": "uint256"
        }
      ],
      "name": "ListingPaused",
      "type": "event"
    },
    {
      "anonymous": false,
      "inputs": [
        {
          "indexed": true,
          "internalType": "uint256",
          "name": "listingId",
          "type": "uint256"
        }
      ],
      "name": "ListingResumed",
      "type": "event"
    },
    {
      "anonymous": false,
      "inputs": [
        {
          "indexed": true,
          "internalType": "uint256",
          "name": "listingId",
          "type": "uint256"
        },
        {
          "indexed": true,
          "internalType": "address",
          "name": "nftContract",
          "type": "address"
        },
        {
          "indexed": true,
          "internalType": "uint256",
          "name": "tokenId",
          "type": "uint256"
        },
        {
          "indexed": false,
          "internalType": "address",
          "name": "seller",
          "type": "address"
        },
        {
          "indexed": false,
          "internalType": "uint256",
          "name": "price",
          "type": "uint256"
        }
      ],
      "name": "NFTListed",
      "type": "event"
    },
    {
      "anonymous": false,
      "inputs": [
        {
          "indexed": true,
          "internalType": "uint256",
          "name": "listingId",
          "type": "uint256"
        },
        {
          "indexed": true,
          "internalType": "address",
          "name": "nftContract",
          "type": "address"
        },
        {
          "indexed": true,
          "internalType": "uint256",
          "name": "tokenId",
          "type": "uint256"
        },
        {
          "indexed": false,
          "internalType": "address",
          "name": "seller",
          "type": "address"
        },
        {
          "indexed": false,
          "internalType": "address",
          "name": "buyer",
          "type": "address"
        },
        {
          "indexed": false,
          "internalType": "uint256",
          "name": "price",
          "type": "uint256"
        }
      ],
      "name": "NFTSold",
      "type": "event"
    },
    {
      "anonymous": false,
      "inputs": [
        {
          "indexed": true,
          "internalType": "uint256",
          "name": "listingId",
          "type": "uint256"
        },
        {
          "indexed": true,
          "internalType": "address",
          "name": "offerer",
          "type": "address"
        },
        {
          "indexed": false,
          "internalType": "uint256",
          "name": "amount",
          "type": "uint256"
        }
      ],
      "name": "OfferAccepted",
      "type": "event"
    },
    {
      "anonymous": false,
      "inputs": [
        {
          "indexed": true,
          "internalType": "uint256",
          "name": "listingId",
          "type": "uint256"
        },
        {
          "indexed": true,
          "internalType": "address",
          "name": "offerer",
          "type": "address"
        },
        {
          "indexed": false,
          "internalType": "uint256",
          "name": "amount",
          "type": "uint256"
        }
      ],
      "name": "OfferCancelled",
      "type": "event"
    },
    {
      "anonymous": false,
      "inputs": [
        {
          "indexed": true,
          "internalType": "uint256",
          "name": "listingId",
          "type": "uint256"
        },
        {
          "indexed": true,
          "internalType": "address",
          "name": "offerer",
          "type": "address"
        },
        {
          "indexed": false,
          "internalType": "uint256",
          "name": "amount",
          "type": "uint256"
        },
        {
          "indexed": false,
          "internalType": "uint256",
          "name": "expiration",
          "type": "uint256"
        }
      ],
      "name": "OfferMade",
      "type": "event"
    },
    {
      "anonymous": false,
      "inputs": [
        {
          "indexed": true,
          "internalType": "address",
          "name": "previousOwner",
          "type": "address"
        },
        {
          "indexed": true,
          "internalType": "address",
          "name": "newOwner",
          "type": "address"
        }
      ],
      "name": "OwnershipTransferred",
      "type": "event"
    },
    {
      "inputs": [
        {
          "internalType": "uint256",
          "name": "listingId",
          "type": "uint256"
        },
        {
          "internalType": "uint256",
          "name": "offerIndex",
          "type": "uint256"
        }
      ],
      "name": "acceptOffer",
      "outputs": [],
      "stateMutability": "nonpayable",
      "type": "function"
    },
    {
      "inputs": [
        {
          "internalType": "uint256",
          "name": "listingId",
          "type": "uint256"
        }
      ],
      "name": "buyNFT",
      "outputs": [],
      "stateMutability": "payable",
      "type": "function"
    },
    {
      "inputs": [
        {
          "internalType": "uint256",
          "name": "listingId",
          "type": "uint256"
        }
      ],
      "name": "cancelListing",
      "outputs": [],
      "stateMutability": "nonpayable",
      "type": "function"
    },
    {
      "inputs": [
        {
          "internalType": "uint256",
          "name": "listingId",
          "type": "uint256"
        },
        {
          "internalType": "uint256",
          "name": "offerIndex",
          "type": "uint256"
        }
      ],
      "name": "cancelOffer",
      "outputs": [],
      "stateMutability": "nonpayable",
      "type": "function"
    },
    {
      "inputs": [
        {
          "internalType": "address",
          "name": "nftContract",
          "type": "address"
        },
        {
          "internalType": "uint256",
          "name": "tokenId",
          "type": "uint256"
        },
        {
          "internalType": "address",
          "name": "to",
          "type": "address"
        }
      ],
      "name": "emergencyRecoverNFT",
      "outputs": [],
      "stateMutability": "nonpayable",
      "type": "function"
    },
    {
      "inputs": [
        {
          "internalType": "address",
          "name": "nftContract",
          "type": "address"
        },
        {
          "internalType": "uint256",
          "name": "tokenId",
          "type": "uint256"
        }
      ],
      "name": "getActiveListing",
      "outputs": [
        {
          "internalType": "uint256",
          "name": "",
          "type": "uint256"
        }
      ],
      "stateMutability": "view",
      "type": "function"
    },
    {
      "inputs": [],
      "name": "getAllActiveListings",
      "outputs": [
        {
          "components": [
            {
              "internalType": "uint256",
              "name": "listingId",
              "type": "uint256"
            },
            {
              "internalType": "uint256",
              "name": "tokenId",
              "type": "uint256"
            },
            {
              "internalType": "address",
              "name": "nftContract",
              "type": "address"
            },
            {
              "internalType": "address",
              "name": "seller",
              "type": "address"
            },
            {
              "internalType": "uint256",
              "name": "price",
              "type": "uint256"
            },
            {
              "internalType": "bool",
              "name": "active",
              "type": "bool"
            }
          ],
          "internalType": "struct NFTMarketplace.ListingWithId[]",
          "name": "",
          "type": "tuple[]"
        }
      ],
      "stateMutability": "view",
      "type": "function"
    },
    {
      "inputs": [
        {
          "internalType": "uint256",
          "name": "listingId",
          "type": "uint256"
        }
      ],
      "name": "getOffers",
      "outputs": [
        {
          "components": [
            {
              "internalType": "address",
              "name": "offerer",
              "type": "address"
            },
            {
              "internalType": "uint256",
              "name": "amount",
              "type": "uint256"
            },
            {
              "internalType": "uint256",
              "name": "expiration",
              "type": "uint256"
            },
            {
              "internalType": "bool",
              "name": "active",
              "type": "bool"
            }
          ],
          "internalType": "struct NFTMarketplace.Offer[]",
          "name": "",
          "type": "tuple[]"
        }
      ],
      "stateMutability": "view",
      "type": "function"
    },
    {
      "inputs": [
        {
          "internalType": "address",
          "name": "nftContract",
          "type": "address"
        },
        {
          "internalType": "uint256",
          "name": "tokenId",
          "type": "uint256"
        },
        {
          "internalType": "uint256",
          "name": "price",
          "type": "uint256"
        }
      ],
      "name": "listNFT",
      "outputs": [],
      "stateMutability": "nonpayable",
      "type": "function"
    },
    {
      "inputs": [
        {
          "internalType": "uint256",
          "name": "",
          "type": "uint256"
        },
        {
          "internalType": "uint256",
          "name": "",
          "type": "uint256"
        }
      ],
      "name": "listingOffers",
      "outputs": [
        {
          "internalType": "address",
          "name": "offerer",
          "type": "address"
        },
        {
          "internalType": "uint256",
          "name": "amount",
          "type": "uint256"
        },
        {
          "internalType": "uint256",
          "name": "expiration",
          "type": "uint256"
        },
        {
          "internalType": "bool",
          "name": "active",
          "type": "bool"
        }
      ],
      "stateMutability": "view",
      "type": "function"
    },
    {
      "inputs": [
        {
          "internalType": "uint256",
          "name": "",
          "type": "uint256"
        }
      ],
      "name": "listings",
      "outputs": [
        {
          "internalType": "uint256",
          "name": "tokenId",
          "type": "uint256"
        },
        {
          "internalType": "address",
          "name": "nftContract",
          "type": "address"
        },
        {
          "internalType": "address",
          "name": "seller",
          "type": "address"
        },
        {
          "internalType": "uint256",
          "name": "price",
          "type": "uint256"
        },
        {
          "internalType": "bool",
          "name": "active",
          "type": "bool"
        }
      ],
      "stateMutability": "view",
      "type": "function"
    },
    {
      "inputs": [
        {
          "internalType": "uint256",
          "name": "listingId",
          "type": "uint256"
        },
        {
          "internalType": "uint256",
          "name": "expiration",
          "type": "uint256"
        }
      ],
      "name": "makeOffer",
      "outputs": [],
      "stateMutability": "payable",
      "type": "function"
    },
    {
      "inputs": [],
      "name": "marketplaceFee",
      "outputs": [
        {
          "internalType": "uint256",
          "name": "",
          "type": "uint256"
        }
      ],
      "stateMutability": "view",
      "type": "function"
    },
    {
      "inputs": [],
      "name": "nextListingId",
      "outputs": [
        {
          "internalType": "uint256",
          "name": "",
          "type": "uint256"
        }
      ],
      "stateMutability": "view",
      "type": "function"
    },
    {
      "inputs": [],
      "name": "owner",
      "outputs": [
        {
          "internalType": "address",
          "name": "",
          "type": "address"
        }
      ],
      "stateMutability": "view",
      "type": "function"
    },
    {
      "inputs": [
        {
          "internalType": "uint256",
          "name": "listingId",
          "type": "uint256"
        }
      ],
      "name": "pauseListing",
      "outputs": [],
      "stateMutability": "nonpayable",
      "type": "function"
    },
    {
      "inputs": [],
      "name": "renounceOwnership",
      "outputs": [],
      "stateMutability": "nonpayable",
      "type": "function"
    },
    {
      "inputs": [
        {
          "internalType": "uint256",
          "name": "listingId",
          "type": "uint256"
        }
      ],
      "name": "resumeListing",
      "outputs": [],
      "stateMutability": "nonpayable",
      "type": "function"
    },
    {
      "inputs": [
        {
          "internalType": "uint256",
          "name": "newFee",
          "type": "uint256"
        }
      ],
      "name": "setMarketplaceFee",
      "outputs": [],
      "stateMutability": "nonpayable",
      "type": "function"
    },
    {
      "inputs": [
        {
          "internalType": "address",
          "name": "",
          "type": "address"
        },
        {
          "internalType": "uint256",
          "name": "",
          "type": "uint256"
        }
      ],
      "name": "tokenToListing",
      "outputs": [
        {
          "internalType": "uint256",
          "name": "",
          "type": "uint256"
        }
      ],
      "stateMutability": "view",
      "type": "function"
    },
    {
      "inputs": [
        {
          "internalType": "address",
          "name": "newOwner",
          "type": "address"
        }
      ],
      "name": "transferOwnership",
      "outputs": [],
      "stateMutability": "nonpayable",
      "type": "function"
    },
    {
      "inputs": [
        {
          "internalType": "uint256",
          "name": "listingId",
          "type": "uint256"
        },
        {
          "internalType": "uint256",
          "name": "newPrice",
          "type": "uint256"
        }
      ],
      "name": "updatePrice",
      "outputs": [],
      "stateMutability": "nonpayable",
      "type": "function"
    },
    {
      "inputs": [],
      "name": "withdrawFees",
      "outputs": [],
      "stateMutability": "nonpayable",
      "type": "function"
    }
  ],
  "transactionHash": "0x2fcbe3a5d1cf107d55a417b05485dc10548d1b5b0aa80de43c349fae0342c0d3",
  "args": [],
  "numDeployments": 1,
  "solcInputHash": "03255b8dde05ae6870c8dcb09284ccba",
  "bytecode": "0x6080604052600160045560fa60055534801561001a57600080fd5b506001600055338061004657604051631e4fbdf760e01b81526000600482015260240160405180910390fd5b61004f81610055565b506100a7565b600180546001600160a01b038381166001600160a01b0319831681179093556040519116919082907f8be0079c531659141344cd1fd0a4f28419497f9722a3daafe3b4186f6b6457e090600090a35050565b6125d280620000b76000396000f3fe6080604052600436106101405760003560e01c806381257bd5116100b6578063bad27f9b1161006f578063bad27f9b14610384578063c4c54188146103a4578063d45557cc146103c4578063de74e57b146103e4578063dfa49e6f14610473578063f2fde38b146104a057600080fd5b806381257bd5146102c657806382367b2d146102e65780638da5cb5b146103065780639407ea981461032e578063aaccf1ec1461034e578063ad05f1b41461036457600080fd5b806350f771561161010857806350f771561461020057806351ed8288146102205780636a166964146102335780636f7b435214610257578063701e50841461028f578063715018a6146102b157600080fd5b806305b7cdd3146101455780631385205c1461015a57806320e33db81461017a578063305a67a8146101cb578063476343ee146101eb575b600080fd5b610158610153366004612265565b6104c0565b005b34801561016657600080fd5b50610158610175366004612287565b6106be565b34801561018657600080fd5b5061019a610195366004612265565b610a16565b604080516001600160a01b039095168552602085019390935291830152151560608201526080015b60405180910390f35b3480156101d757600080fd5b506101586101e6366004612287565b610a69565b3480156101f757600080fd5b50610158610bad565b34801561020c57600080fd5b5061015861021b366004612287565b610ca1565b61015861022e366004612287565b610d62565b34801561023f57600080fd5b5061024960055481565b6040519081526020016101c2565b34801561026357600080fd5b506102496102723660046122b5565b600360209081526000928352604080842090915290825290205481565b34801561029b57600080fd5b506102a461119b565b6040516101c291906122e1565b3480156102bd57600080fd5b5061015861133c565b3480156102d257600080fd5b506101586102e1366004612265565b611350565b3480156102f257600080fd5b50610158610301366004612265565b611931565b34801561031257600080fd5b506001546040516001600160a01b0390911681526020016101c2565b34801561033a57600080fd5b50610158610349366004612287565b611a16565b34801561035a57600080fd5b5061024960045481565b34801561037057600080fd5b5061015861037f366004612369565b611a6d565b34801561039057600080fd5b5061024961039f3660046122b5565b611e3e565b3480156103b057600080fd5b506101586103bf36600461239e565b611e69565b3480156103d057600080fd5b506101586103df366004612265565b611ed8565b3480156103f057600080fd5b5061043d6103ff366004612287565b60026020819052600091825260409091208054600182015492820154600383015460049093015491936001600160a01b039081169391169160ff1685565b604080519586526001600160a01b039485166020870152929093169184019190915260608301521515608082015260a0016101c2565b34801561047f57600080fd5b5061049361048e366004612287565b6120df565b6040516101c291906123e0565b3480156104ac57600080fd5b506101586104bb366004612442565b612181565b6104c86121bc565b6000828152600260205260409020600481015460ff166105035760405162461bcd60e51b81526004016104fa90612466565b60405180910390fd5b60028101546001600160a01b031633036105555760405162461bcd60e51b815260206004820152601360248201527229b2b63632b91031b0b73737ba1037b33332b960691b60448201526064016104fa565b600034116105995760405162461bcd60e51b815260206004820152601160248201527004f66666572206d757374206265203e203607c1b60448201526064016104fa565b4282116105e85760405162461bcd60e51b815260206004820152601c60248201527f45787069726174696f6e206d75737420626520696e206675747572650000000060448201526064016104fa565b6000838152600660209081526040808320815160808101835233808252348286018181528386018a815260016060860181815287548083018955978b52998990209551600490970290950180546001600160a01b0319166001600160a01b039097169690961786559051938501939093559151600284015594516003909201805460ff191692151592909217909155815190815291820185905285917fd7df0c72641d362ea57ecc9cab99c77f936e36bb826f096258c3404196b26d6a910160405180910390a3506106ba6001600055565b5050565b6000818152600260205260409020600481015460ff161561071a5760405162461bcd60e51b81526020600482015260166024820152754c697374696e6720616c72656164792061637469766560501b60448201526064016104fa565b60028101546001600160a01b0316331461076f5760405162461bcd60e51b81526020600482015260166024820152754f6e6c792073656c6c65722063616e20726573756d6560501b60448201526064016104fa565b6001810154600282015482546040516331a9108f60e11b815260048101919091526001600160a01b0392831692909116908290636352211e90602401602060405180830381865afa1580156107c8573d6000803e3d6000fd5b505050506040513d601f19601f820116820180604052508101906107ec9190612492565b6001600160a01b03161461083a5760405162461bcd60e51b815260206004820152601560248201527453656c6c6572206e6f206c6f6e676572206f776e7360581b60448201526064016104fa565b600282015460405163e985e9c560e01b81526001600160a01b0391821660048201523060248201529082169063e985e9c590604401602060405180830381865afa15801561088c573d6000803e3d6000fd5b505050506040513d601f19601f820116820180604052508101906108b091906124af565b806109345750815460405163020604bf60e21b815230916001600160a01b0384169163081812fc916108e89160040190815260200190565b602060405180830381865afa158015610905573d6000803e3d6000fd5b505050506040513d601f19601f820116820180604052508101906109299190612492565b6001600160a01b0316145b61097b5760405162461bcd60e51b815260206004820152601860248201527713585c9ad95d1c1b1858d9481b9bdd08185c1c1c9bdd995960421b60448201526064016104fa565b60048201805460ff191660019081179091558201546001600160a01b031660009081526003602090815260408083208554845290915281205490036109e65760018201546001600160a01b031660009081526003602090815260408083208554845290915290208390555b60405183907f7f1dfa1d44f6d2da78c00df64b0116c918dacbb9a4e0671e474603a326c4e23690600090a2505050565b60066020528160005260406000208181548110610a3257600080fd5b600091825260209091206004909102018054600182015460028301546003909301546001600160a01b039092169450925060ff1684565b610a716121bc565b6000818152600260205260409020600481015460ff16610aa35760405162461bcd60e51b81526004016104fa90612466565b60028101546001600160a01b0316331480610ad7575033610acc6001546001600160a01b031690565b6001600160a01b0316145b610b235760405162461bcd60e51b815260206004820152601f60248201527f4f6e6c792073656c6c6572206f72206f776e65722063616e2063616e63656c0060448201526064016104fa565b60048101805460ff191690556001810180546001600160a01b03908116600090815260036020908152604080832086548452825280832092909255845493546002860154925192841683529092169185917f69e5af4ae7d64e2ae64974f8f3d1149f91bd39f3b1dc649f7add227a19093a07910160405180910390a450610baa6001600055565b50565b610bb56121e6565b4780610bf95760405162461bcd60e51b81526020600482015260136024820152724e6f206665657320746f20776974686472617760681b60448201526064016104fa565b6000610c0d6001546001600160a01b031690565b6001600160a01b03168260405160006040518083038185875af1925050503d8060008114610c57576040519150601f19603f3d011682016040523d82523d6000602084013e610c5c565b606091505b50509050806106ba5760405162461bcd60e51b815260206004820152601160248201527015da5d1a191c985dd85b0819985a5b1959607a1b60448201526064016104fa565b6000818152600260205260409020600481015460ff16610cd35760405162461bcd60e51b81526004016104fa90612466565b60028101546001600160a01b03163314610d275760405162461bcd60e51b81526020600482015260156024820152744f6e6c792073656c6c65722063616e20706175736560581b60448201526064016104fa565b60048101805460ff1916905560405182907fccf05f4102545965ec08932c92c4db5980b2c27c5fc913e64756615f59e8e68990600090a25050565b610d6a6121bc565b6000818152600260205260409020600481015460ff16610d9c5760405162461bcd60e51b81526004016104fa90612466565b8060030154341015610de75760405162461bcd60e51b8152602060048201526014602482015273125b9cdd59999a58da595b9d081c185e5b595b9d60621b60448201526064016104fa565b60028101546001600160a01b03163303610e435760405162461bcd60e51b815260206004820152601760248201527f43616e6e6f742062757920796f7572206f776e204e465400000000000000000060448201526064016104fa565b6002810154600182015482546040516331a9108f60e11b815260048101919091526001600160a01b039283169290911690636352211e90602401602060405180830381865afa158015610e9a573d6000803e3d6000fd5b505050506040513d601f19601f82011682018060405250810190610ebe9190612492565b6001600160a01b031614610f145760405162461bcd60e51b815260206004820152601e60248201527f53656c6c6572206e6f206c6f6e676572206f776e732074686973204e4654000060448201526064016104fa565b60048101805460ff1916905560018101546001600160a01b031660009081526003602081815260408084208554855290915282208290556005549083015461271091610f5f916124e7565b610f6991906124fe565b90506000818360030154610f7d9190612520565b600184015460028501548554604051632142170760e11b81529394506001600160a01b03928316936342842e0e93610fbb9316913391600401612533565b600060405180830381600087803b158015610fd557600080fd5b505af1158015610fe9573d6000803e3d6000fd5b5050505060028301546040516000916001600160a01b03169083908381818185875af1925050503d806000811461103c576040519150601f19603f3d011682016040523d82523d6000602084013e611041565b606091505b505090508061108d5760405162461bcd60e51b815260206004820152601860248201527714185e5b595b9d081d1bc81cd95b1b195c8819985a5b195960421b60448201526064016104fa565b836003015434111561113157600384015460009033906110ad9034612520565b604051600081818185875af1925050503d80600081146110e9576040519150601f19603f3d011682016040523d82523d6000602084013e6110ee565b606091505b505090508061112f5760405162461bcd60e51b815260206004820152600d60248201526c1499599d5b990819985a5b1959609a1b60448201526064016104fa565b505b83546001850154600286015460038701546040516001600160a01b03938416938a937ffbd14ef83c9e36d4cd05cdc496d3b3a07da3041679b4142908d0ef3cef210dc4936111859391909216913391612533565b60405180910390a450505050610baa6001600055565b6060600060015b6004548110156111e65760008181526002602052604090206004015460ff16156111d457816111d081612557565b9250505b806111de81612557565b9150506111a2565b5060008167ffffffffffffffff81111561120257611202612570565b60405190808252806020026020018201604052801561126257816020015b6040805160c08101825260008082526020808301829052928201819052606082018190526080820181905260a082015282526000199092019101816112205790505b509050600060015b6004548110156113335760008181526002602052604090206004015460ff1615611321576040805160c08101825282815260008381526002602081815284832080548286015260018101546001600160a01b03908116968601969096528083015490951660608501526003850154608085015291859052905260049091015460ff16151560a0820152835184908490811061130757611307612586565b6020026020010181905250818061131d90612557565b9250505b8061132b81612557565b91505061126a565b50909392505050565b6113446121e6565b61134e6000612213565b565b6113586121bc565b6000828152600260205260409020600481015460ff1661138a5760405162461bcd60e51b81526004016104fa90612466565b60028101546001600160a01b031633146113d45760405162461bcd60e51b815260206004820152600b60248201526a27b7363c9039b2b63632b960a91b60448201526064016104fa565b60008381526006602052604090205482106114275760405162461bcd60e51b8152602060048201526013602482015272092dcecc2d8d2c840decccccae440d2dcc8caf606b1b60448201526064016104fa565b600083815260066020526040812080548490811061144757611447612586565b60009182526020909120600490910201600381015490915060ff166114a15760405162461bcd60e51b815260206004820152601060248201526f4f66666572206e6f742061637469766560801b60448201526064016104fa565b42816002015410156114e55760405162461bcd60e51b815260206004820152600d60248201526c13d999995c88195e1c1a5c9959609a1b60448201526064016104fa565b6001820154600283015483546040516331a9108f60e11b815260048101919091526001600160a01b0392831692909116908290636352211e90602401602060405180830381865afa15801561153e573d6000803e3d6000fd5b505050506040513d601f19601f820116820180604052508101906115629190612492565b6001600160a01b0316146115b05760405162461bcd60e51b815260206004820152601560248201527453656c6c6572206e6f206c6f6e676572206f776e7360581b60448201526064016104fa565b600283015460405163e985e9c560e01b81526001600160a01b0391821660048201523060248201529082169063e985e9c590604401602060405180830381865afa158015611602573d6000803e3d6000fd5b505050506040513d601f19601f8201168201806040525081019061162691906124af565b806116aa5750825460405163020604bf60e21b815230916001600160a01b0384169163081812fc9161165e9160040190815260200190565b602060405180830381865afa15801561167b573d6000803e3d6000fd5b505050506040513d601f19601f8201168201806040525081019061169f9190612492565b6001600160a01b0316145b6116f15760405162461bcd60e51b815260206004820152601860248201527713585c9ad95d1c1b1858d9481b9bdd08185c1c1c9bdd995960421b60448201526064016104fa565b60048301805460ff199081169091556001808501546001600160a01b0316600090815260036020818152604080842089548552909152822082905585018054909316909255600554908401546127109161174a916124e7565b61175491906124fe565b905060008184600101546117689190612520565b600286015485548754604051632142170760e11b81529394506001600160a01b03808816946342842e0e946117a7949083169392169190600401612533565b600060405180830381600087803b1580156117c157600080fd5b505af11580156117d5573d6000803e3d6000fd5b5050505060028501546040516000916001600160a01b03169083908381818185875af1925050503d8060008114611828576040519150601f19603f3d011682016040523d82523d6000602084013e61182d565b606091505b50509050806118795760405162461bcd60e51b815260206004820152601860248201527714185e5b595b9d081d1bc81cd95b1b195c8819985a5b195960421b60448201526064016104fa565b845460018601546040519081526001600160a01b039091169089907fea555ab99331ceac5051c58f17cc7b411b30241b0e28cb93a7d3a24c77a7a9a99060200160405180910390a3855460018088015460028901548854928901546040516001600160a01b03938416948e947ffbd14ef83c9e36d4cd05cdc496d3b3a07da3041679b4142908d0ef3cef210dc49461191994908216939290911691612533565b60405180910390a45050505050506106ba6001600055565b6000828152600260205260409020600481015460ff166119635760405162461bcd60e51b81526004016104fa90612466565b60028101546001600160a01b031633146119bf5760405162461bcd60e51b815260206004820152601c60248201527f4f6e6c792073656c6c65722063616e207570646174652070726963650000000060448201526064016104fa565b60008211611a0f5760405162461bcd60e51b815260206004820152601c60248201527f5072696365206d7573742062652067726561746572207468616e20300000000060448201526064016104fa565b6003015550565b611a1e6121e6565b6103e8811115611a685760405162461bcd60e51b81526020600482015260156024820152744665652063616e6e6f74206578636565642031302560581b60448201526064016104fa565b600555565b611a756121bc565b60008111611ac55760405162461bcd60e51b815260206004820152601c60248201527f5072696365206d7573742062652067726561746572207468616e20300000000060448201526064016104fa565b6040516331a9108f60e11b81526004810183905233906001600160a01b03851690636352211e90602401602060405180830381865afa158015611b0c573d6000803e3d6000fd5b505050506040513d601f19601f82011682018060405250810190611b309190612492565b6001600160a01b031614611b7f5760405162461bcd60e51b8152602060048201526016602482015275165bdd48191bdb89dd081bdddb881d1a1a5cc813919560521b60448201526064016104fa565b60405163e985e9c560e01b81523360048201523060248201526001600160a01b0384169063e985e9c590604401602060405180830381865afa158015611bc9573d6000803e3d6000fd5b505050506040513d601f19601f82011682018060405250810190611bed91906124af565b80611c69575060405163020604bf60e21b81526004810183905230906001600160a01b0385169063081812fc90602401602060405180830381865afa158015611c3a573d6000803e3d6000fd5b505050506040513d601f19601f82011682018060405250810190611c5e9190612492565b6001600160a01b0316145b611cc65760405162461bcd60e51b815260206004820152602860248201527f4d61726b6574706c616365206e6f7420617070726f76656420746f207472616e6044820152671cd9995c8813919560c21b60648201526084016104fa565b6001600160a01b038316600090815260036020908152604080832085845290915290205415611d2c5760405162461bcd60e51b815260206004820152601260248201527113919508185b1c9958591e481b1a5cdd195960721b60448201526064016104fa565b6004805460009182611d3d83612557565b909155506040805160a0810182528581526001600160a01b03878116602080840182815233858701818152606087018b815260016080890181815260008c815260028089528c82209b518c559651928b018054938b166001600160a01b03199485161790559351958a018054969099169590911694909417909655945160038088019190915591516004909601805496151560ff19909716969096179095558284528152848320898452815291849020859055835192835290820186905292935085929184917f18c93addaf4d0e5982a13cb88444441b90223974eaf9d6e898151cb4d96bf153910160405180910390a450611e396001600055565b505050565b6001600160a01b03821660009081526003602090815260408083208484529091529020545b92915050565b611e716121e6565b604051632142170760e11b81526001600160a01b038416906342842e0e90611ea190309085908790600401612533565b600060405180830381600087803b158015611ebb57600080fd5b505af1158015611ecf573d6000803e3d6000fd5b50505050505050565b611ee06121bc565b6000828152600660205260409020548110611f335760405162461bcd60e51b8152602060048201526013602482015272092dcecc2d8d2c840decccccae440d2dcc8caf606b1b60448201526064016104fa565b6000828152600660205260408120805483908110611f5357611f53612586565b60009182526020909120600490910201600381015490915060ff16611fad5760405162461bcd60e51b815260206004820152601060248201526f4f66666572206e6f742061637469766560801b60448201526064016104fa565b80546001600160a01b03163314611ff45760405162461bcd60e51b815260206004820152600b60248201526a2737ba1037b33332b932b960a91b60448201526064016104fa565b60038101805460ff19169055600181015460405160009133918381818185875af1925050503d8060008114612045576040519150601f19603f3d011682016040523d82523d6000602084013e61204a565b606091505b505090508061208b5760405162461bcd60e51b815260206004820152600d60248201526c1499599d5b990819985a5b1959609a1b60448201526064016104fa565b336001600160a01b0316847fe2dc0bfd2fc658db980184c3f7c091c2f886874e896043b562d5099c8d95b1dd84600101546040516120cb91815260200190565b60405180910390a350506106ba6001600055565b606060066000838152602001908152602001600020805480602002602001604051908101604052809291908181526020016000905b82821015612176576000848152602090819020604080516080810182526004860290920180546001600160a01b03168352600180820154848601526002820154928401929092526003015460ff16151560608301529083529092019101612114565b505050509050919050565b6121896121e6565b6001600160a01b0381166121b357604051631e4fbdf760e01b8152600060048201526024016104fa565b610baa81612213565b6002600054036121df57604051633ee5aeb560e01b815260040160405180910390fd5b6002600055565b6001546001600160a01b0316331461134e5760405163118cdaa760e01b81523360048201526024016104fa565b600180546001600160a01b038381166001600160a01b0319831681179093556040519116919082907f8be0079c531659141344cd1fd0a4f28419497f9722a3daafe3b4186f6b6457e090600090a35050565b6000806040838503121561227857600080fd5b50508035926020909101359150565b60006020828403121561229957600080fd5b5035919050565b6001600160a01b0381168114610baa57600080fd5b600080604083850312156122c857600080fd5b82356122d3816122a0565b946020939093013593505050565b602080825282518282018190526000919060409081850190868401855b8281101561235c578151805185528681015187860152858101516001600160a01b0390811687870152606080830151909116908601526080808201519086015260a09081015115159085015260c090930192908501906001016122fe565b5091979650505050505050565b60008060006060848603121561237e57600080fd5b8335612389816122a0565b95602085013595506040909401359392505050565b6000806000606084860312156123b357600080fd5b83356123be816122a0565b92506020840135915060408401356123d5816122a0565b809150509250925092565b602080825282518282018190526000919060409081850190868401855b8281101561235c57815180516001600160a01b0316855286810151878601528581015186860152606090810151151590850152608090930192908501906001016123fd565b60006020828403121561245457600080fd5b813561245f816122a0565b9392505050565b6020808252601290820152714c697374696e67206e6f742061637469766560701b604082015260600190565b6000602082840312156124a457600080fd5b815161245f816122a0565b6000602082840312156124c157600080fd5b8151801515811461245f57600080fd5b634e487b7160e01b600052601160045260246000fd5b8082028115828204841417611e6357611e636124d1565b60008261251b57634e487b7160e01b600052601260045260246000fd5b500490565b81810381811115611e6357611e636124d1565b6001600160a01b039384168152919092166020820152604081019190915260600190565b600060018201612569576125696124d1565b5060010190565b634e487b7160e01b600052604160045260246000fd5b634e487b7160e01b600052603260045260246000fdfea264697066735822122034054f3a28354bd091a6cf2433ad88bce79485fd059bbab3b01d4212154ae5b664736f6c63430008140033",
  "devdoc": {
    "errors": {
      "OwnableInvalidOwner(address)": [
        {
          "details": "The owner is not a valid owner account. (eg. `address(0)`)"
        }
      ],
      "OwnableUnauthorizedAccount(address)": [
        {
          "details": "The caller account is not authorized to perform an operation."
        }
      ],
      "ReentrancyGuardReentrantCall()": [
        {
          "details": "Unauthorized reentrant call."
        }
      ]
    },
    "kind": "dev",
    "methods": {
      "owner()": {
        "details": "Returns the address of the current owner."
      },
      "renounceOwnership()": {
        "details": "Leaves the contract without owner. It will not be possible to call `onlyOwner` functions. Can only be called by the current owner. NOTE: Renouncing ownership will leave the contract without an owner, thereby disabling any functionality that is only available to the owner."
      },
      "transferOwnership(address)": {
        "details": "Transfers ownership of the contract to a new account (`newOwner`). Can only be called by the current owner."
      }
    },
    "version": 1
  },
  "userdoc": {
    "kind": "user",
    "methods": {},
    "version": 1
  },
  "storageLayout": {
    "storage": [
      {
        "astId": 2071,
        "contract": "contracts/NFTMarketplace.sol:NFTMarketplace",
        "label": "_status",
        "offset": 0,
        "slot": "0",
        "type": "t_uint256"
      },
      {
        "astId": 8,
        "contract": "contracts/NFTMarketplace.sol:NFTMarketplace",
        "label": "_owner",
        "offset": 0,
        "slot": "1",
        "type": "t_address"
      },
      {
        "astId": 3617,
        "contract": "contracts/NFTMarketplace.sol:NFTMarketplace",
        "label": "listings",
        "offset": 0,
        "slot": "2",
        "type": "t_mapping(t_uint256,t_struct(Listing)3599_storage)"
      },
      {
        "astId": 3623,
        "contract": "contracts/NFTMarketplace.sol:NFTMarketplace",
        "label": "tokenToListing",
        "offset": 0,
        "slot": "3",
        "type": "t_mapping(t_address,t_mapping(t_uint256,t_uint256))"
      },
      {
        "astId": 3626,
        "contract": "contracts/NFTMarketplace.sol:NFTMarketplace",
        "label": "nextListingId",
        "offset": 0,
        "slot": "4",
        "type": "t_uint256"
      },
      {
        "astId": 3629,
        "contract": "contracts/NFTMarketplace.sol:NFTMarketplace",
        "label": "marketplaceFee",
        "offset": 0,
        "slot": "5",
        "type": "t_uint256"
      },
      {
        "astId": 3644,
        "contract": "contracts/NFTMarketplace.sol:NFTMarketplace",
        "label": "listingOffers",
        "offset": 0,
        "slot": "6",
        "type": "t_mapping(t_uint256,t_array(t_struct(Offer)3638_storage)dyn_storage)"
      }
    ],
    "types": {
      "t_address": {
        "encoding": "inplace",
        "label": "address",
        "numberOfBytes": "20"
      },
      "t_array(t_struct(Offer)3638_storage)dyn_storage": {
        "base": "t_struct(Offer)3638_storage",
        "encoding": "dynamic_array",
        "label": "struct NFTMarketplace.Offer[]",
        "numberOfBytes": "32"
      },
      "t_bool": {
        "encoding": "inplace",
        "label": "bool",
        "numberOfBytes": "1"
      },
      "t_mapping(t_address,t_mapping(t_uint256,t_uint256))": {
        "encoding": "mapping",
        "key": "t_address",
        "label": "mapping(address => mapping(uint256 => uint256))",
        "numberOfBytes": "32",
        "value": "t_mapping(t_uint256,t_uint256)"
      },
      "t_mapping(t_uint256,t_array(t_struct(Offer)3638_storage)dyn_storage)": {
        "encoding": "mapping",
        "key": "t_uint256",
        "label": "mapping(uint256 => struct NFTMarketplace.Offer[])",
        "numberOfBytes": "32",
        "value": "t_array(t_struct(Offer)3638_storage)dyn_storage"
      },
      "t_mapping(t_uint256,t_struct(Listing)3599_storage)": {
        "encoding": "mapping",
        "key": "t_uint256",
        "label": "mapping(uint256 => struct NFTMarketplace.Listing)",
        "numberOfBytes": "32",
        "value": "t_struct(Listing)3599_storage"
      },
      "t_mapping(t_uint256,t_uint256)": {
        "encoding": "mapping",
        "key": "t_uint256",
        "label": "mapping(uint256 => uint256)",
        "numberOfBytes": "32",
        "value": "t_uint256"
      },
      "t_struct(Listing)3599_storage": {
        "encoding": "inplace",
        "label": "struct NFTMarketplace.Listing",
        "members": [
          {
            "astId": 3590,
            "contract": "contracts/NFTMarketplace.sol:NFTMarketplace",
            "label": "tokenId",
            "offset": 0,
            "slot": "0",
            "type": "t_uint256"
          },
          {
            "astId": 3592,
            "contract": "contracts/NFTMarketplace.sol:NFTMarketplace",
            "label": "nftContract",
            "offset": 0,
            "slot": "1",
            "type": "t_address"
          },
          {
            "astId": 3594,
            "contract": "contracts/NFTMarketplace.sol:NFTMarketplace",
            "label": "seller",
            "offset": 0,
            "slot": "2",
            "type": "t_address"
          },
          {
            "astId": 3596,
            "contract": "contracts/NFTMarketplace.sol:NFTMarketplace",
            "label": "price",
            "offset": 0,
            "slot": "3",
            "type": "t_uint256"
          },
          {
            "astId": 3598,
            "contract": "contracts/NFTMarketplace.sol:NFTMarketplace",
            "label": "active",
            "offset": 0,
            "slot": "4",
            "type": "t_bool"
          }
        ],
        "numberOfBytes": "160"
      },
      "t_struct(Offer)3638_storage": {
        "encoding": "inplace",
        "label": "struct NFTMarketplace.Offer",
        "members": [
          {
            "astId": 3631,
            "contract": "contracts/NFTMarketplace.sol:NFTMarketplace",
            "label": "offerer",
            "offset": 0,
            "slot": "0",
            "type": "t_address"
          },
          {
            "astId": 3633,
            "contract": "contracts/NFTMarketplace.sol:NFTMarketplace",
            "label": "amount",
            "offset": 0,
            "slot": "1",
            "type": "t_uint256"
          },
          {
            "astId": 3635,
            "contract": "contracts/NFTMarketplace.sol:NFTMarketplace",
            "label": "expiration",
            "offset": 0,
            "slot": "2",
            "type": "t_uint256"
          },
          {
            "astId": 3637,
            "contract": "contracts/NFTMarketplace.sol:NFTMarketplace",
            "label": "active",
            "offset": 0,
            "slot": "3",
            "type": "t_bool"
          }
        ],
        "numberOfBytes": "128"
      },
      "t_uint256": {
        "encoding": "inplace",
        "label": "uint256",
        "numberOfBytes": "32"
      }
    }
  }
}